:020000040800F2
:100000001804002049010008AD0300085703000848
:10001000A903000891010008710600080000000013
:10002000000000000000000000000000D1030008F4
:100030009501000800000000AF030008CD0500088E
:100040006301000863010008630100086301000800
:1000500063010008630100086301000863010008F0
:1000600063010008C1010008E50100086301000800
:1000700063010008630100086301000863010008D0
:1000800063010008630100086301000863010008C0
:1000900063010008630100086301000863010008B0
:1000A00063010008630100086301000863010008A0
:1000B0006301000863010008630100086301000890
:1000C0006301000863010008630100086301000880
:1000D0006301000863010008630100086301000870
:1000E0006301000863010008630100086301000860
:1000F0006301000863010008630100086301000850
:10010000630100086301000863010008630100083F
:10011000630100086301000863010008630100082F
:10012000630100086301000863010008630100081F
:10013000DFF810D000F01AF80048004795060008D4
:10014000AFF30080180400200648804706480047A7
:10015000FEE7FEE7FEE7FEE7FEE7FEE7FEE7FEE777
:10016000FEE7FEE7F905000831010008064C074DDF
:1001700006E0E06840F0010394E807009847103477
:10018000AC42F6D3FFF7D8FF0007000820070008AD
:1001900000BFFEE77047000001B5084900980860FD
:1001A0004FF0E020006940F001004FF0E0210861CD
:1001B00000BF024800680028FBD108BD14000020E1
:1001C00010B5082000F026F840B10548006880F01E
:1001D000200003490860082000F016F810BD000058
:1001E0000C18014010B5102000F014F840B105487B
:1001F000006880F0200003490860102000F004F837
:1002000010BD00000C0C014001490860704700005F
:1002100014040140014600200022074B1B6803EA3A
:100220000102054B14331B680B4013B10AB10120C6
:1002300000E0002070470000000401402DE9F0417B
:10024000024600250026002000230024002791F804
:1002500003C00CF00F0591F803C00CF0100CBCF1BA
:10026000000F03D091F802C04CEA050591F800C0D8
:10027000BCF1000F31D0146800202BE04FF0010CCE
:100280000CFA00F3B1F800C00CEA03069E4220D13C
:1002900083004FF00F0C0CFA03F7BC4305FA03FC84
:1002A0004CEA040491F803C0BCF1280F06D14FF0CA
:1002B000010C0CFA00FCC2F814C00AE091F803C06B
:1002C000BCF1480F05D14FF0010C0CFA00FCC2F84C
:1002D00010C0401C0828D1D31460B1F800C0BCF194
:1002E000FF0F34DD546800202EE000F1080C4FF0C1
:1002F000010808FA0CF3B1F800C00CEA03069E42AC
:1003000021D183004FF00F0C0CFA03F7BC4305FA20
:1003100003FC4CEA040491F803C0BCF1280F05D19A
:1003200000F1080C08FA0CF8C2F8148091F803C028
:10033000BCF1480F07D100F1080C4FF0010808FA92
:100340000CF8C2F81080401C0828CED35460BDE8D9
:10035000F0810161704700BFFEE7000008B5012190
:10036000482000F025F810208DF8030001208DF8BA
:1003700002002020ADF8000069460948FFF75EFF43
:100380002020ADF8000069460648FFF757FF2021FE
:100390000348FFF7DEFF20210248FFF7DAFF08BD20
:1003A000000C01400018014000BFFEE77047704795
:1003B00029B1064A92690243044B9A6104E0034A58
:1003C00092698243014B9A6170470000001002401D
:1003D000704710B500F002F810BD00000CB5002009
:1003E000019000903348006840F480303149086043
:1003F00000BF3048006800F4003000900198401CB5
:100400000190009818B90198B0F5A06FF1D1294872
:10041000006800F4003010B10120009001E00020DD
:1004200000900098012843D12348006840F0100054
:10043000214908600846006820F007000860084667
:10044000006840F0020008601A4840681949486096
:100450000846406848600846406840F4806048604C
:100460000846406820F47C1048600846406840F424
:10047000E81048600846006840F08070086000BFDF
:100480000C48006800F000700028F9D00948406866
:1004900020F00300074948600846406840F0020029
:1004A000486000BF0348406800F00C000828F9D1FC
:1004B0000CBD0000001002400020024030B5014693
:1004C000B1F1807F01D3012030BD21F07F40401E7B
:1004D0004FF0E022506150170F22002807DA13076F
:1004E0001D0E094B00F00F04241F1D5503E01307D8
:1004F0001C0E064B1C5400BF00204FF0E022906100
:10050000072010610020DFE718ED00E000E400E0C4
:1005100031B5154800684FF47A71B0FBF1F5284603
:10052000FFF7CCFF08B100BFFEE74FF0E020006905
:1005300040F001004FF0E0210861002408E000BF16
:100540004FF0E020006900F480300028F8D0641CEF
:1005500000988442F3D34FF0E020006920F00100BE
:100560004FF0E021086138BD0000002031B515488A
:1005700000681549B0FBF1F52846FFF79FFF08B169
:1005800000BFFEE74FF0E020006940F001004FF0AF
:10059000E0210861002408E000BF4FF0E02000697E
:1005A00000F480300028F8D0641C00988442F3D313
:1005B0004FF0E020006920F001004FF0E0210861D9
:1005C00038BD00000000002040420F0010B500F0D0
:1005D00043F810BD10B5064800680649B0FBF1F4B9
:1005E0002046FFF76BFF08B100BFFEE710BD00001B
:1005F00000000020A086010010B51348006840F0FC
:1006000001001149086008464068104908400E4939
:100610004860084600680E4908400B4908600846D3
:10062000006820F4802008600846406820F4FE003E
:1006300048604FF41F008860FFF7CBFE4FF000606A
:100640000449086010BD0000001002400000FFF8DF
:10065000FFFFF6FE08ED00E00448006820B1034803
:100660000068401E01490860704700001400002027
:1006700000BFFEE702E008C8121F08C1002AFAD135
:1006800070477047002001E001C1121F002AFBD112
:1006900070470000FFF762FE2020164908601649E7
:1006A000086025E0FFF796FF2020124908601249F4
:1006B000091F08601148FFF76FFD20200D49091F31
:1006C00008600D4908600D48FFF766FD20200949C4
:1006D00008600949091F08600848FFF747FF202004
:1006E0000449091F0860044908606420FFF710FFEF
:1006F000D8E70000140C014014180140A086010046
:100700002007000800000020180000007406000800
:1007100038070008180000200004000084060008C4
:1007200000A24A04000000000000000001020304CF
:080730000607080900000000A3
:0400000508000131BD
:00000001FF
