:020000040800F2
:1000000060060020B1010008B9010008BB0100082A
:10001000BD010008BF010008C10100080000000088
:10002000000000000000000000000000C301000804
:10003000C501000800000000C7010008C901000850
:10004000CB010008CB010008CB010008CB01000860
:10005000CB010008CB010008CB010008CB01000850
:10006000CB010008CB010008CB010008CB01000840
:10007000CB010008CB010008CB010008CB01000830
:10008000CB010008CB010008CB010008CB01000820
:10009000CB010008CB010008CB010008CB01000810
:1000A000CB010008CB010008CB010008CB01000800
:1000B000CB010008CB010008CB010008CB010008F0
:1000C000CB010008CB010008CB010008CB010008E0
:1000D000CB010008CB010008CB010008CB010008D0
:1000E000CB010008CB010008CB010008CB010008C0
:1000F000CB010008CB010008CB010008CB010008B0
:10010000CB010008CB010008CB010008CB0100089F
:10011000CB010008CB010008CB010008CB0100088F
:10012000CB010008CB010008CB010008CB0100087F
:1001300000F002F800F02CF80AA090E8000C8244CD
:100140008344AAF10107DA4501D100F021F8AFF2AA
:10015000090EBAE80F0013F0010F18BFFB1A43F0A5
:100160000103184794020000A402000000230024A9
:1001700000250026103A28BF78C1FBD8520728BFB7
:1001800030C148BF0B6070471FB51FBD10B510BD13
:1001900000F031F81146FFF7F7FF00F0F5F800F036
:1001A0004FF803B4FFF7F2FF03BC00F057F800006C
:1001B0000948804709480047FEE7FEE7FEE7FEE7FB
:1001C000FEE7FEE7FEE7FEE7FEE7FEE70448054937
:1001D000054A064B704700008703000831010008FC
:1001E0006000002060060020600200206002002005
:1001F000704770477047754600F02CF8AE46050012
:100200006946534620F00700854618B020B5FFF731
:10021000DDFFBDE820404FF000064FF000074FF033
:1002200000084FF0000B21F00701AC46ACE8C00914
:10023000ACE8C009ACE8C009ACE8C0098D4670471D
:1002400010B50446AFF300802046BDE81040FFF72C
:10025000A8BF000000487047000000200149182096
:10026000ABBEFEE72600020070472DE9F0410246D2
:1002700000250026002000230024002791F803C059
:100280000CF00F0591F803C00CF0100CBCF1000F3E
:1002900003D091F802C04CEA050591F800C0BCF10A
:1002A000000F31D0146800202BE04FF0010C0CFA45
:1002B00000F3B1F800C00CEA03069E4220D183008F
:1002C0004FF00F0C0CFA03F7BC4305FA03FC4CEAA1
:1002D000040491F803C0BCF1280F06D14FF0010CC3
:1002E0000CFA00FCC2F814C00AE091F803C0BCF19B
:1002F000480F05D14FF0010C0CFA00FCC2F810C0F9
:10030000401C0828D1D31460B1F800C0BCF1FF0F25
:1003100035DD546800202FE000F1080C4FF0010893
:1003200008FA0CF3B1F800C00CEA03069E4222D191
:1003300083004FF00F0C0CFA03F7BC4305FA03FCE3
:100340004CEA040491F803C0BCF1280F06D100F177
:10035000080C08FA0CF8C2F814800CE091F803C0FD
:10036000BCF1480F07D100F1080C4FF0010808FA62
:100370000CF8C2F81080401C0828CDD35460BDE8AA
:10038000F08141617047704708B51848806940F0B6
:100390000800164988612020ADF8000010208DF873
:1003A000030001208DF8020069461148FFF75DFF48
:1003B00020210F48FFF7E5FF0C48806940F040001E
:1003C0000A4988612020ADF8000010208DF8030054
:1003D00001208DF8020069460648FFF746FF2021FC
:1003E0000448FFF7CEFF00BFFEE700000010024008
:1003F000000C014000180140080400080000002023
:08040000600600006C01000819
:0400000508000131BD
:00000001FF
